{
  "address": "0x5B458d71a353384087CE1c48dA405D9cab14d155",
  "abi": [
    {
      "inputs": [
        {
          "internalType": "address",
          "name": "_feedRegistry",
          "type": "address"
        }
      ],
      "stateMutability": "nonpayable",
      "type": "constructor"
    },
    {
      "anonymous": false,
      "inputs": [
        {
          "indexed": true,
          "internalType": "address",
          "name": "token",
          "type": "address"
        },
        {
          "indexed": true,
          "internalType": "address",
          "name": "tokenDenomination",
          "type": "address"
        }
      ],
      "name": "CustomFeedMappingUpdated",
      "type": "event"
    },
    {
      "anonymous": false,
      "inputs": [
        {
          "indexed": true,
          "internalType": "address",
          "name": "previousFeedRegistry",
          "type": "address"
        },
        {
          "indexed": true,
          "internalType": "address",
          "name": "newFeedRegistry",
          "type": "address"
        }
      ],
      "name": "FeedRegistryUpdated",
      "type": "event"
    },
    {
      "anonymous": false,
      "inputs": [
        {
          "indexed": true,
          "internalType": "address",
          "name": "previousOwner",
          "type": "address"
        },
        {
          "indexed": true,
          "internalType": "address",
          "name": "newOwner",
          "type": "address"
        }
      ],
      "name": "OwnershipTransferred",
      "type": "event"
    },
    {
      "anonymous": false,
      "inputs": [
        {
          "indexed": false,
          "internalType": "uint256",
          "name": "oldTolerance",
          "type": "uint256"
        },
        {
          "indexed": false,
          "internalType": "uint256",
          "name": "newTolerance",
          "type": "uint256"
        }
      ],
      "name": "StalenessToleranceUpdated",
      "type": "event"
    },
    {
      "anonymous": false,
      "inputs": [
        {
          "indexed": false,
          "internalType": "uint256",
          "name": "id",
          "type": "uint256"
        },
        {
          "indexed": true,
          "internalType": "address",
          "name": "stream",
          "type": "address"
        },
        {
          "indexed": true,
          "internalType": "address",
          "name": "payer",
          "type": "address"
        },
        {
          "indexed": true,
          "internalType": "address",
          "name": "payee",
          "type": "address"
        },
        {
          "indexed": false,
          "internalType": "uint256",
          "name": "usdAmount",
          "type": "uint256"
        }
      ],
      "name": "StreamCreated",
      "type": "event"
    },
    {
      "inputs": [],
      "name": "NAME",
      "outputs": [
        {
          "internalType": "string",
          "name": "",
          "type": "string"
        }
      ],
      "stateMutability": "view",
      "type": "function"
    },
    {
      "inputs": [],
      "name": "VERSION",
      "outputs": [
        {
          "internalType": "string",
          "name": "",
          "type": "string"
        }
      ],
      "stateMutability": "view",
      "type": "function"
    },
    {
      "inputs": [
        {
          "internalType": "address",
          "name": "_payee",
          "type": "address"
        },
        {
          "internalType": "uint256",
          "name": "_usdAmount",
          "type": "uint256"
        },
        {
          "internalType": "address",
          "name": "_token",
          "type": "address"
        },
        {
          "internalType": "address",
          "name": "_fundingAddress",
          "type": "address"
        },
        {
          "internalType": "uint256",
          "name": "_endTime",
          "type": "uint256"
        }
      ],
      "name": "createStream",
      "outputs": [
        {
          "internalType": "address",
          "name": "streamAddress",
          "type": "address"
        }
      ],
      "stateMutability": "nonpayable",
      "type": "function"
    },
    {
      "inputs": [
        {
          "internalType": "address",
          "name": "",
          "type": "address"
        }
      ],
      "name": "customFeedMapping",
      "outputs": [
        {
          "internalType": "address",
          "name": "",
          "type": "address"
        }
      ],
      "stateMutability": "view",
      "type": "function"
    },
    {
      "inputs": [],
      "name": "feedRegistry",
      "outputs": [
        {
          "internalType": "contract FeedRegistryInterface",
          "name": "",
          "type": "address"
        }
      ],
      "stateMutability": "view",
      "type": "function"
    },
    {
      "inputs": [
        {
          "internalType": "uint256",
          "name": "_idx",
          "type": "uint256"
        }
      ],
      "name": "getStream",
      "outputs": [
        {
          "internalType": "address",
          "name": "",
          "type": "address"
        }
      ],
      "stateMutability": "view",
      "type": "function"
    },
    {
      "inputs": [],
      "name": "getStreamsCount",
      "outputs": [
        {
          "internalType": "uint256",
          "name": "",
          "type": "uint256"
        }
      ],
      "stateMutability": "view",
      "type": "function"
    },
    {
      "inputs": [
        {
          "internalType": "address",
          "name": "_a",
          "type": "address"
        }
      ],
      "name": "ours",
      "outputs": [
        {
          "internalType": "bool",
          "name": "",
          "type": "bool"
        }
      ],
      "stateMutability": "view",
      "type": "function"
    },
    {
      "inputs": [],
      "name": "owner",
      "outputs": [
        {
          "internalType": "address",
          "name": "",
          "type": "address"
        }
      ],
      "stateMutability": "view",
      "type": "function"
    },
    {
      "inputs": [],
      "name": "renounceOwnership",
      "outputs": [],
      "stateMutability": "nonpayable",
      "type": "function"
    },
    {
      "inputs": [],
      "name": "stalenessTolerance",
      "outputs": [
        {
          "internalType": "uint256",
          "name": "",
          "type": "uint256"
        }
      ],
      "stateMutability": "view",
      "type": "function"
    },
    {
      "inputs": [
        {
          "internalType": "address",
          "name": "newOwner",
          "type": "address"
        }
      ],
      "name": "transferOwnership",
      "outputs": [],
      "stateMutability": "nonpayable",
      "type": "function"
    },
    {
      "inputs": [
        {
          "internalType": "address",
          "name": "_token",
          "type": "address"
        },
        {
          "internalType": "address",
          "name": "_denomination",
          "type": "address"
        }
      ],
      "name": "updateCustomFeedMapping",
      "outputs": [],
      "stateMutability": "nonpayable",
      "type": "function"
    },
    {
      "inputs": [
        {
          "internalType": "address",
          "name": "_newAddress",
          "type": "address"
        }
      ],
      "name": "updateFeedRegistry",
      "outputs": [],
      "stateMutability": "nonpayable",
      "type": "function"
    },
    {
      "inputs": [
        {
          "internalType": "uint256",
          "name": "_newTolerance",
          "type": "uint256"
        }
      ],
      "name": "updateStalenessTolerance",
      "outputs": [],
      "stateMutability": "nonpayable",
      "type": "function"
    },
    {
      "inputs": [
        {
          "internalType": "address",
          "name": "_token",
          "type": "address"
        },
        {
          "internalType": "uint256",
          "name": "_amount",
          "type": "uint256"
        }
      ],
      "name": "usdToTokenAmount",
      "outputs": [
        {
          "internalType": "uint256",
          "name": "lastPrice",
          "type": "uint256"
        }
      ],
      "stateMutability": "view",
      "type": "function"
    }
  ],
  "transactionHash": "0xa77a9cb599a08fecbf06ff1783091d22df5058fd7902c01a3c5511dda2a67be4",
  "args": [
    "0xeA437b70f29Bd7FD4Bb34e98DD5Be06c1aCAcCF7"
  ],
  "numDeployments": 1,
  "solcInputHash": "20540cc51b65df89ece15d1bfd2ba1e0",
  "bytecode": "0x60806040526201518060055534801561001757600080fd5b5060405161366c38038061366c8339810160408190526100369161010c565b61003f336100bc565b600380546001600160a01b039092166001600160a01b031992831617905573c02aaa39b223fe8d0a0e5c4f27ead9083c756cc260005260046020527e137c28eabea4eda5601e544e6551e6761ee561d32c4142c29e0f892835a361805490911673eeeeeeeeeeeeeeeeeeeeeeeeeeeeeeeeeeeeeeee17905561013c565b600080546001600160a01b038381166001600160a01b0319831681178455604051919092169283917f8be0079c531659141344cd1fd0a4f28419497f9722a3daafe3b4186f6b6457e09190a35050565b60006020828403121561011e57600080fd5b81516001600160a01b038116811461013557600080fd5b9392505050565b6135218061014b6000396000f3fe60806040523480156200001157600080fd5b5060043610620001155760003560e01c8063a3f4df7e11620000a3578063e335e79a116200006e578063e335e79a14620002ba578063f2fde38b14620002c3578063f411d38914620002da578063ffa1ad7414620002e457600080fd5b8063a3f4df7e1462000205578063b01cdf3d1462000251578063b02737ff1462000268578063b2211d5c146200029457600080fd5b806381cc3ba411620000e457806381cc3ba41462000188578063894e9a0d14620001c85780638da5cb5b14620001df57806390238c3914620001f157600080fd5b80632d3965bd146200011a5780635ccc57351462000133578063715018a61462000167578063748f682e1462000171575b600080fd5b620001316200012b36600462000d38565b62000321565b005b6200014a6200014436600462000d76565b6200045a565b6040516001600160a01b0390911681526020015b60405180910390f35b6200013162000599565b620001316200018236600462000dd8565b620005b1565b620001b76200019936600462000df2565b6001600160a01b031660009081526002602052604090205460ff1690565b60405190151581526020016200015e565b6200014a620001d936600462000dd8565b620005fc565b6000546001600160a01b03166200014a565b6003546200014a906001600160a01b031681565b620002426040518060400160405280601481526020017f5061796d656e7453747265616d466163746f727900000000000000000000000081525081565b6040516200015e919062000e19565b620001316200026236600462000df2565b6200062f565b6200014a6200027936600462000df2565b6004602052600090815260409020546001600160a01b031681565b620002ab620002a536600462000e71565b6200075a565b6040519081526020016200015e565b600154620002ab565b62000131620002d436600462000df2565b62000a20565b620002ab60055481565b620002426040518060400160405280600581526020017f312e302e3200000000000000000000000000000000000000000000000000000081525081565b6200032b62000ab6565b6001600160a01b038116620003875760405162461bcd60e51b815260206004820152601760248201527f696e76616c69642d637573746f6d2d666565642d6d617000000000000000000060448201526064015b60405180910390fd5b6001600160a01b0380831660009081526004602052604090205482821691161415620003f65760405162461bcd60e51b815260206004820152601460248201527f73616d652d637573746f6d2d666565642d6d617000000000000000000000000060448201526064016200037e565b6001600160a01b03828116600081815260046020526040808220805473ffffffffffffffffffffffffffffffffffffffff19169486169485179055517f497fb4c9c745286ec067621e3f67117daa1960eb459aa41003d30394070dd2c49190a35050565b60006200046884866200075a565b503386868686866040516200047d9062000d14565b6001600160a01b039687168152948616602086015260408501939093529084166060840152909216608082015260a081019190915260c001604051809103906000f080158015620004d2573d6000803e3d6000fd5b506001805480820182557fb10e2d527612073b26eecdfd717e6a320cf44b4afac2b0732d9fcbe2b7fa0cf601805473ffffffffffffffffffffffffffffffffffffffff19166001600160a01b038481169182179092556000818152600260205260409020805460ff19168417905582549394509089169233927fb09edfcf805674d896a73bdea048a368e58a9ee54fe3e177237ba603ce7572239162000579919062000eb6565b60408051918252602082018b90520160405180910390a495945050505050565b620005a362000ab6565b620005af600062000b12565b565b620005bb62000ab6565b60055460408051918252602082018390527fa78b3a7f4155d0f667750fea220b1d92f8a334e9b52f1b0c60fb31d266387c04910160405180910390a1600555565b60006001828154811062000614576200061462000ed0565b6000918252602090912001546001600160a01b031692915050565b6200063962000ab6565b6001600160a01b038116620006915760405162461bcd60e51b815260206004820152601d60248201527f696e76616c69642d666565642d72656769737472792d6164647265737300000060448201526064016200037e565b6003546001600160a01b0382811691161415620006f15760405162461bcd60e51b815260206004820152601a60248201527f73616d652d666565642d72656769737472792d6164647265737300000000000060448201526064016200037e565b6003546040516001600160a01b038084169216907f6d1006252b3dd171af76c28c184327bfddc39f439a50e0ac7f418c660b8894b590600090a36003805473ffffffffffffffffffffffffffffffffffffffff19166001600160a01b0392909216919091179055565b6003546000906001600160a01b031663d2edb6dd620007798562000b6f565b6040517fffffffff0000000000000000000000000000000000000000000000000000000060e084901b1681526001600160a01b039091166004820152610348602482015260440160206040518083038186803b158015620007d957600080fd5b505afa9250505080156200080c575060408051601f3d908101601f19168201909252620008099181019062000ee6565b60015b62000947576000620008338473eeeeeeeeeeeeeeeeeeeeeeeeeeeeeeeeeeeeeeee62000bb7565b905060006200085973eeeeeeeeeeeeeeeeeeeeeeeeeeeeeeeeeeeeeeee61034862000bb7565b90506000816200087286670de0b6b3a764000062000f06565b6200087e919062000f28565b9050856001600160a01b031663313ce5676040518163ffffffff1660e01b815260040160206040518083038186803b158015620008ba57600080fd5b505afa158015620008cf573d6000803e3d6000fd5b505050506040513d601f19601f82011682018060405250810190620008f5919062000f4b565b6200090290601262000f70565b6200090f90600a62001093565b836200092483670de0b6b3a764000062000f06565b62000930919062000f28565b6200093c919062000f28565b935050505062000a1a565b6000620009578561034862000bb7565b9050846001600160a01b031663313ce5676040518163ffffffff1660e01b815260040160206040518083038186803b1580156200099357600080fd5b505afa158015620009a8573d6000803e3d6000fd5b505050506040513d601f19601f82011682018060405250810190620009ce919062000f4b565b620009db90601262000f70565b620009e890600a62001093565b81620009fd86670de0b6b3a764000062000f06565b62000a09919062000f28565b62000a15919062000f28565b925050505b92915050565b62000a2a62000ab6565b6001600160a01b03811662000aa85760405162461bcd60e51b815260206004820152602660248201527f4f776e61626c653a206e6577206f776e657220697320746865207a65726f206160448201527f646472657373000000000000000000000000000000000000000000000000000060648201526084016200037e565b62000ab38162000b12565b50565b6000546001600160a01b03163314620005af5760405162461bcd60e51b815260206004820181905260248201527f4f776e61626c653a2063616c6c6572206973206e6f7420746865206f776e657260448201526064016200037e565b600080546001600160a01b0383811673ffffffffffffffffffffffffffffffffffffffff19831681178455604051919092169283917f8be0079c531659141344cd1fd0a4f28419497f9722a3daafe3b4186f6b6457e09190a35050565b6001600160a01b038181166000908152600460205260408120549091161562000bb3576001600160a01b038083166000908152600460205260409020541662000a1a565b5090565b600354600090819081906001600160a01b031663bcfd032d62000bda8762000b6f565b6040517fffffffff0000000000000000000000000000000000000000000000000000000060e084901b1681526001600160a01b039182166004820152908716602482015260440160a06040518083038186803b15801562000c3a57600080fd5b505afa15801562000c4f573d6000803e3d6000fd5b505050506040513d601f19601f8201168201806040525081019062000c759190620010c4565b509350509250506005546000148062000c9b575060055462000c98824262000eb6565b11155b62000ce95760405162461bcd60e51b815260206004820152600c60248201527f7374616c652d6f7261636c65000000000000000000000000000000000000000060448201526064016200037e565b6001600160a01b0384166103481462000d03578162000a15565b62000a15826402540be40062001119565b61230a80620011e283390190565b6001600160a01b038116811462000ab357600080fd5b6000806040838503121562000d4c57600080fd5b823562000d598162000d22565b9150602083013562000d6b8162000d22565b809150509250929050565b600080600080600060a0868803121562000d8f57600080fd5b853562000d9c8162000d22565b945060208601359350604086013562000db58162000d22565b9250606086013562000dc78162000d22565b949793965091946080013592915050565b60006020828403121562000deb57600080fd5b5035919050565b60006020828403121562000e0557600080fd5b813562000e128162000d22565b9392505050565b600060208083528351808285015260005b8181101562000e485785810183015185820160400152820162000e2a565b8181111562000e5b576000604083870101525b50601f01601f1916929092016040019392505050565b6000806040838503121562000e8557600080fd5b823562000e928162000d22565b946020939093013593505050565b634e487b7160e01b600052601160045260246000fd5b60008282101562000ecb5762000ecb62000ea0565b500390565b634e487b7160e01b600052603260045260246000fd5b60006020828403121562000ef957600080fd5b815162000e128162000d22565b600081600019048311821515161562000f235762000f2362000ea0565b500290565b60008262000f4657634e487b7160e01b600052601260045260246000fd5b500490565b60006020828403121562000f5e57600080fd5b815160ff8116811462000e1257600080fd5b600060ff821660ff84168082101562000f8d5762000f8d62000ea0565b90039392505050565b600181815b8085111562000fd757816000190482111562000fbb5762000fbb62000ea0565b8085161562000fc957918102915b93841c939080029062000f9b565b509250929050565b60008262000ff05750600162000a1a565b8162000fff5750600062000a1a565b8160018114620010185760028114620010235762001043565b600191505062000a1a565b60ff84111562001037576200103762000ea0565b50506001821b62000a1a565b5060208310610133831016604e8410600b841016171562001068575081810a62000a1a565b62001074838362000f96565b80600019048211156200108b576200108b62000ea0565b029392505050565b600062000e1260ff84168362000fdf565b805169ffffffffffffffffffff81168114620010bf57600080fd5b919050565b600080600080600060a08688031215620010dd57600080fd5b620010e886620010a4565b94506020860151935060408601519250606086015191506200110d60808701620010a4565b90509295509295909350565b60007f7fffffffffffffffffffffffffffffffffffffffffffffffffffffffffffffff6000841360008413858304851182821616156200115d576200115d62000ea0565b7f800000000000000000000000000000000000000000000000000000000000000060008712868205881281841616156200119b576200119b62000ea0565b60008712925087820587128484161615620011ba57620011ba62000ea0565b87850587128184161615620011d357620011d362000ea0565b50505092909302939250505056fe60e06040523480156200001157600080fd5b506040516200230a3803806200230a833981016040819052620000349162000546565b3360c0819052604080516001621794a360e21b03198152905163ffa1ad7491600480820192600092909190829003018186803b1580156200007457600080fd5b505afa15801562000089573d6000803e3d6000fd5b505050506040513d6000823e601f3d908101601f19168201604052620000b39190810190620005cb565b8051620000c99160019160209091019062000483565b50428111620001125760405162461bcd60e51b815260206004820152601060248201526f696e76616c69642d656e642d74696d6560801b60448201526064015b60405180910390fd5b816001600160a01b0316856001600160a01b03161415620001765760405162461bcd60e51b815260206004820152601860248201527f70617965652d69732d66756e64696e672d616464726573730000000000000000604482015260640162000109565b6001600160a01b038516158015906200019757506001600160a01b03821615155b620001e55760405162461bcd60e51b815260206004820152601d60248201527f70617965652d6f722d66756e64696e672d616464726573732d69732d30000000604482015260640162000109565b60008411620002295760405162461bcd60e51b815260206004820152600f60248201526e07573642d616d6f756e742d69732d3608c1b604482015260640162000109565b600280546001600160a01b038088166001600160a01b031992831617909255600486905584821660a0526003805485841692169190911790558616608052426005819055620002799082620006a7565b60068190556200028a9085620006cd565b6007819055620002d05760405162461bcd60e51b815260206004820152601060248201526f07573642d7065722d7365632d69732d360841b604482015260640162000109565b6040516430b236b4b760d91b60208201526200030c9060250160405160208183030381529060405280519060200120876200038860201b60201c565b604051677061757361626c6560c01b60208201526200037c90602801604051602081830303815290604052805190602001206040516020016200035a906430b236b4b760d91b815260050190565b604051602081830303815290604052805190602001206200039860201b60201c565b5050505050506200072d565b620003948282620003e3565b5050565b600082815260208190526040808220600101805490849055905190918391839186917fbd79b86ffe0ab8e8776151514217cd7cacd52c909f66475c3af44e129f0b00ff9190a4505050565b6000828152602081815260408083206001600160a01b038516845290915290205460ff1662000394576000828152602081815260408083206001600160a01b03851684529091529020805460ff191660011790556200043f3390565b6001600160a01b0316816001600160a01b0316837f2f8788117e7eff1d82e926ec794901d17c78024a50270940304540a733656f0d60405160405180910390a45050565b8280546200049190620006f0565b90600052602060002090601f016020900481019282620004b5576000855562000500565b82601f10620004d057805160ff191683800117855562000500565b8280016001018555821562000500579182015b8281111562000500578251825591602001919060010190620004e3565b506200050e92915062000512565b5090565b5b808211156200050e576000815560010162000513565b80516001600160a01b03811681146200054157600080fd5b919050565b60008060008060008060c087890312156200056057600080fd5b6200056b8762000529565b95506200057b6020880162000529565b945060408701519350620005926060880162000529565b9250620005a26080880162000529565b915060a087015190509295509295509295565b634e487b7160e01b600052604160045260246000fd5b60006020808385031215620005df57600080fd5b82516001600160401b0380821115620005f757600080fd5b818501915085601f8301126200060c57600080fd5b815181811115620006215762000621620005b5565b604051601f8201601f19908116603f011681019083821181831017156200064c576200064c620005b5565b8160405282815288868487010111156200066557600080fd5b600093505b828410156200068957848401860151818501870152928501926200066a565b828411156200069b5760008684830101525b98975050505050505050565b600082821015620006c857634e487b7160e01b600052601160045260246000fd5b500390565b600082620006eb57634e487b7160e01b600052601260045260246000fd5b500490565b600181811c908216806200070557607f821691505b602082108114156200072757634e487b7160e01b600052602260045260246000fd5b50919050565b60805160a05160c051611b60620007aa600039600081816103c901528181610e1a0152610ff001526000818161044c01528181610e4901528181610fbe0152818161109901526110de01526000818161023301528181610577015281816107580152818161090401528181610b300152610c2b0152611b606000f3fe608060405234801561001057600080fd5b50600436106101d95760003560e01c8063a217fddf11610104578063d547741f116100a2578063f3ca5edf11610071578063f3ca5edf1461042c578063f6d6d5aa1461043f578063fc0c546a14610447578063ffa1ad741461046e57600080fd5b8063d547741f146103fe578063d9d1bc2714610411578063e834a8341461041a578063f0d909371461042357600080fd5b8063af38d757116100de578063af38d757146103b4578063b87fe774146103bc578063c45a0155146103c4578063d3b7bfb4146103eb57600080fd5b8063a217fddf14610350578063a3f4df7e14610358578063ae90b213146103a157600080fd5b806336568abe1161017c57806361cd014d1161014b57806361cd014d146102ea57806378e97925146102fd57806391d148541461030657806398416f0e1461033d57600080fd5b806336568abe146102ba5780634b7c6617146102cd5780634e71d92d146102d55780635c975abb146102dd57600080fd5b8063123119cd116101b8578063123119cd1461022e57806319f7671b1461026d578063248a9ca3146102845780632f2ff15d146102a757600080fd5b80627adac4146101de57806301ffc9a7146101f357806303b86b551461021b575b600080fd5b6101f16101ec366004611843565b610476565b005b61020661020136600461185e565b61050b565b60405190151581526020015b60405180910390f35b6101f1610229366004611888565b610574565b6102557f000000000000000000000000000000000000000000000000000000000000000081565b6040516001600160a01b039091168152602001610212565b61027660065481565b604051908152602001610212565b6102766102923660046118aa565b60009081526020819052604090206001015490565b6101f16102b53660046118c3565b61069f565b6101f16102c83660046118c3565b6106c9565b6101f1610755565b6101f1610841565b6009546102069060ff1681565b6101f16102f8366004611843565b610901565b61027660055481565b6102066103143660046118c3565b6000918252602082815260408084206001600160a01b0393909316845291905290205460ff1690565b6101f161034b366004611843565b610ae7565b610276600081565b6103946040518060400160405280600d81526020017f5061796d656e7453747265616d0000000000000000000000000000000000000081525081565b604051610212919061191b565b600254610255906001600160a01b031681565b610276610b1e565b6101f1610b2d565b6102557f000000000000000000000000000000000000000000000000000000000000000081565b600354610255906001600160a01b031681565b6101f161040c3660046118c3565b610c03565b61027660075481565b61027660085481565b61027660045481565b6101f161043a366004611843565b610c28565b610276610e16565b6102557f000000000000000000000000000000000000000000000000000000000000000081565b610394610eec565b6001600160a01b0381166104d15760405162461bcd60e51b815260206004820152601060248201527f696e76616c69642d64656c65676174650000000000000000000000000000000060448201526064015b60405180910390fd5b604051677061757361626c6560c01b602082015261050890602801604051602081830303815290604052805190602001208261069f565b50565b60006001600160e01b031982167f7965db0b00000000000000000000000000000000000000000000000000000000148061056e57507f01ffc9a7000000000000000000000000000000000000000000000000000000006001600160e01b03198316145b92915050565b337f00000000000000000000000000000000000000000000000000000000000000006001600160a01b0316146105df5760405162461bcd60e51b815260206004820152601060248201526f3737ba16b9ba3932b0b696b7bbb732b960811b60448201526064016104c8565b42811161062e5760405162461bcd60e51b815260206004820152601060248201527f696e76616c69642d656e642d74696d650000000000000000000000000000000060448201526064016104c8565b610636610f7a565b600482905542600581905561064b9082611964565b600681905561065a908361197b565b600755600060085560408051838152602081018390527f11f23cf1c7a2a194f2b700a80fe1987bf966eb2f8176a0ecf94eec6eb22f408f910160405180910390a15050565b6000828152602081905260409020600101546106ba8161112e565b6106c48383611138565b505050565b6001600160a01b03811633146107475760405162461bcd60e51b815260206004820152602f60248201527f416363657373436f6e74726f6c3a2063616e206f6e6c792072656e6f756e636560448201527f20726f6c657320666f722073656c66000000000000000000000000000000000060648201526084016104c8565b61075182826111d6565b5050565b337f00000000000000000000000000000000000000000000000000000000000000006001600160a01b031614806107c05750604051677061757361626c6560c01b60208201526107c0906028015b604051602081830303815290604052805190602001206103143390565b61080c5760405162461bcd60e51b815260206004820152601d60248201527f6e6f742d73747265616d2d6f776e65722d6f722d64656c65676174656400000060448201526064016104c8565b6009805460ff191690556040517f27196296b54785165ca5e02d8431ca24e4910ce25b0add3fce74aa38927b34a390600090a1565b6002546001600160a01b0316336001600160a01b0316146108a45760405162461bcd60e51b815260206004820152600960248201527f6e6f742d7061796565000000000000000000000000000000000000000000000060448201526064016104c8565b60095460ff16156108f75760405162461bcd60e51b815260206004820152601060248201527f73747265616d2d69732d7061757365640000000000000000000000000000000060448201526064016104c8565b6108ff610f7a565b565b337f00000000000000000000000000000000000000000000000000000000000000006001600160a01b03161461096c5760405162461bcd60e51b815260206004820152601060248201526f3737ba16b9ba3932b0b696b7bbb732b960811b60448201526064016104c8565b6001600160a01b0381166109c25760405162461bcd60e51b815260206004820152601b60248201527f696e76616c69642d6e65772d66756e64696e672d61646472657373000000000060448201526064016104c8565b6003546001600160a01b0382811691161415610a205760405162461bcd60e51b815260206004820152601860248201527f73616d652d6e65772d66756e64696e672d61646472657373000000000000000060448201526064016104c8565b6002546001600160a01b0382811691161415610a7e5760405162461bcd60e51b815260206004820152601c60248201527f6e65772d66756e64696e672d616464726573732d69732d70617965650000000060448201526064016104c8565b6003546040516001600160a01b038084169216907f45c1138f56e2e3f78c7e80b5c395a6510bbaba05d80c4d66e947c301c9d388f090600090a36003805473ffffffffffffffffffffffffffffffffffffffff19166001600160a01b0392909216919091179055565b604051677061757361626c6560c01b6020820152610508906028016040516020818303038152906040528051906020012082610c03565b6000610b28611255565b905090565b337f00000000000000000000000000000000000000000000000000000000000000006001600160a01b03161480610b7f5750604051677061757361626c6560c01b6020820152610b7f906028016107a3565b610bcb5760405162461bcd60e51b815260206004820152601d60248201527f6e6f742d73747265616d2d6f776e65722d6f722d64656c65676174656400000060448201526064016104c8565b6009805460ff191660011790556040517f8b7fc2110b35688b78e16841494350c1b3329185624cea4b50e59fc2e544a7f890600090a1565b600082815260208190526040902060010154610c1e8161112e565b6106c483836111d6565b337f00000000000000000000000000000000000000000000000000000000000000006001600160a01b031614610c935760405162461bcd60e51b815260206004820152601060248201526f3737ba16b9ba3932b0b696b7bbb732b960811b60448201526064016104c8565b6001600160a01b038116610ce95760405162461bcd60e51b815260206004820152601160248201527f696e76616c69642d6e65772d706179656500000000000000000000000000000060448201526064016104c8565b6002546001600160a01b0382811691161415610d475760405162461bcd60e51b815260206004820152600e60248201527f73616d652d6e65772d706179656500000000000000000000000000000000000060448201526064016104c8565b6003546001600160a01b0382811691161415610da55760405162461bcd60e51b815260206004820152601c60248201527f6e65772d70617965652d69732d66756e64696e672d616464726573730000000060448201526064016104c8565b610dad610f7a565b6002546040516001600160a01b038084169216907fa9e5978bbfbf156599d86b750e4db433bc414c83e3ee93cae447582d6d42990b90600090a36002805473ffffffffffffffffffffffffffffffffffffffff19166001600160a01b0392909216919091179055565b60007f00000000000000000000000000000000000000000000000000000000000000006001600160a01b031663b2211d5c7f0000000000000000000000000000000000000000000000000000000000000000610e70611255565b6040516001600160e01b031960e085901b1681526001600160a01b039092166004830152602482015260440160206040518083038186803b158015610eb457600080fd5b505afa158015610ec8573d6000803e3d6000fd5b505050506040513d601f19601f82011682018060405250810190610b28919061199d565b60018054610ef9906119b6565b80601f0160208091040260200160405190810160405280929190818152602001828054610f25906119b6565b8015610f725780601f10610f4757610100808354040283529160200191610f72565b820191906000526020600020905b815481529060010190602001808311610f5557829003601f168201915b505050505081565b6000610f84611255565b905080610f8e5750565b6040517fb2211d5c0000000000000000000000000000000000000000000000000000000081526001600160a01b037f000000000000000000000000000000000000000000000000000000000000000081166004830152602482018390526000917f00000000000000000000000000000000000000000000000000000000000000009091169063b2211d5c9060440160206040518083038186803b15801561103457600080fd5b505afa158015611048573d6000803e3d6000fd5b505050506040513d601f19601f8201168201806040525081019061106c919061199d565b9050816008600082825461108091906119f1565b90915550506003546002546110c6916001600160a01b037f00000000000000000000000000000000000000000000000000000000000000008116929181169116846112a3565b60408051838152602081018390526001600160a01b037f000000000000000000000000000000000000000000000000000000000000000016917fc09f7b3c1c5b70bf6d30e485a4525d625d4723aed5d319376825446ef135c7ca910160405180910390a25050565b6105088133611331565b6000828152602081815260408083206001600160a01b038516845290915290205460ff16610751576000828152602081815260408083206001600160a01b03851684529091529020805460ff191660011790556111923390565b6001600160a01b0316816001600160a01b0316837f2f8788117e7eff1d82e926ec794901d17c78024a50270940304540a733656f0d60405160405180910390a45050565b6000828152602081815260408083206001600160a01b038516845290915290205460ff1615610751576000828152602081815260408083206001600160a01b0385168085529252808320805460ff1916905551339285917ff6391f5c32d9c69d2a47ea670b442974b53935d1edc7fd64eb21e047a839171b9190a45050565b600080600554426112669190611964565b9050600654811115611288576008546004546112829190611964565b91505090565b600854816007546112999190611a09565b6112829190611964565b604080516001600160a01b0385811660248301528416604482015260648082018490528251808303909101815260849091019091526020810180517bffffffffffffffffffffffffffffffffffffffffffffffffffffffff167f23b872dd0000000000000000000000000000000000000000000000000000000017905261132b9085906113a4565b50505050565b6000828152602081815260408083206001600160a01b038516845290915290205460ff166107515761136281611489565b61136d83602061149b565b60405160200161137e929190611a28565b60408051601f198184030181529082905262461bcd60e51b82526104c89160040161191b565b60006113f9826040518060400160405280602081526020017f5361666545524332303a206c6f772d6c6576656c2063616c6c206661696c6564815250856001600160a01b03166116839092919063ffffffff16565b8051909150156106c457808060200190518101906114179190611aa9565b6106c45760405162461bcd60e51b815260206004820152602a60248201527f5361666545524332303a204552433230206f7065726174696f6e20646964206e60448201527f6f7420737563636565640000000000000000000000000000000000000000000060648201526084016104c8565b606061056e6001600160a01b03831660145b606060006114aa836002611a09565b6114b59060026119f1565b67ffffffffffffffff8111156114cd576114cd611acb565b6040519080825280601f01601f1916602001820160405280156114f7576020820181803683370190505b5090507f30000000000000000000000000000000000000000000000000000000000000008160008151811061152e5761152e611ae1565b60200101906001600160f81b031916908160001a9053507f78000000000000000000000000000000000000000000000000000000000000008160018151811061157957611579611ae1565b60200101906001600160f81b031916908160001a905350600061159d846002611a09565b6115a89060016119f1565b90505b600181111561162d577f303132333435363738396162636465660000000000000000000000000000000085600f16601081106115e9576115e9611ae1565b1a60f81b8282815181106115ff576115ff611ae1565b60200101906001600160f81b031916908160001a90535060049490941c9361162681611af7565b90506115ab565b50831561167c5760405162461bcd60e51b815260206004820181905260248201527f537472696e67733a20686578206c656e67746820696e73756666696369656e7460448201526064016104c8565b9392505050565b6060611692848460008561169a565b949350505050565b6060824710156117125760405162461bcd60e51b815260206004820152602660248201527f416464726573733a20696e73756666696369656e742062616c616e636520666f60448201527f722063616c6c000000000000000000000000000000000000000000000000000060648201526084016104c8565b600080866001600160a01b0316858760405161172e9190611b0e565b60006040518083038185875af1925050503d806000811461176b576040519150601f19603f3d011682016040523d82523d6000602084013e611770565b606091505b50915091506117818783838761178c565b979650505050505050565b606083156117f85782516117f1576001600160a01b0385163b6117f15760405162461bcd60e51b815260206004820152601d60248201527f416464726573733a2063616c6c20746f206e6f6e2d636f6e747261637400000060448201526064016104c8565b5081611692565b611692838381511561180d5781518083602001fd5b8060405162461bcd60e51b81526004016104c8919061191b565b80356001600160a01b038116811461183e57600080fd5b919050565b60006020828403121561185557600080fd5b61167c82611827565b60006020828403121561187057600080fd5b81356001600160e01b03198116811461167c57600080fd5b6000806040838503121561189b57600080fd5b50508035926020909101359150565b6000602082840312156118bc57600080fd5b5035919050565b600080604083850312156118d657600080fd5b823591506118e660208401611827565b90509250929050565b60005b8381101561190a5781810151838201526020016118f2565b8381111561132b5750506000910152565b602081526000825180602084015261193a8160408501602087016118ef565b601f01601f19169190910160400192915050565b634e487b7160e01b600052601160045260246000fd5b6000828210156119765761197661194e565b500390565b60008261199857634e487b7160e01b600052601260045260246000fd5b500490565b6000602082840312156119af57600080fd5b5051919050565b600181811c908216806119ca57607f821691505b602082108114156119eb57634e487b7160e01b600052602260045260246000fd5b50919050565b60008219821115611a0457611a0461194e565b500190565b6000816000190483118215151615611a2357611a2361194e565b500290565b7f416363657373436f6e74726f6c3a206163636f756e7420000000000000000000815260008351611a608160178501602088016118ef565b7f206973206d697373696e6720726f6c65200000000000000000000000000000006017918401918201528351611a9d8160288401602088016118ef565b01602801949350505050565b600060208284031215611abb57600080fd5b8151801515811461167c57600080fd5b634e487b7160e01b600052604160045260246000fd5b634e487b7160e01b600052603260045260246000fd5b600081611b0657611b0661194e565b506000190190565b60008251611b208184602087016118ef565b919091019291505056fea2646970667358221220953d016821cdb902b9e1cea9e2dd3703c34752744d2e25a5a42f901a99187ac664736f6c63430008090033a264697066735822122017abffecf37ff384a855fadfa5e957c401d6ae2e284fc1fb20d543c9f035e78264736f6c63430008090033",
  "devdoc": {
    "kind": "dev",
    "methods": {
      "createStream(address,uint256,address,address,uint256)": {
        "details": "Payer (_msgSender()) is set as admin of \"pausableRole\", so he can grant and revoke the \"pausable\" role later on",
        "params": {
          "_endTime": "timestamp that sets drip distribution end",
          "_fundingAddress": "address used to withdraw the drip",
          "_payee": "address that receives the payment stream",
          "_token": "address of the ERC20 token that payee receives as payment",
          "_usdAmount": "uint256 total amount in USD (scaled to 18 decimals) to be distributed until endTime"
        }
      },
      "owner()": {
        "details": "Returns the address of the current owner."
      },
      "renounceOwnership()": {
        "details": "Leaves the contract without owner. It will not be possible to call `onlyOwner` functions anymore. Can only be called by the current owner. NOTE: Renouncing ownership will leave the contract without an owner, thereby removing any functionality that is only available to the owner."
      },
      "transferOwnership(address)": {
        "details": "Transfers ownership of the contract to a new account (`newOwner`). Can only be called by the current owner."
      },
      "updateCustomFeedMapping(address,address)": {
        "params": {
          "_denomination": "the denomination address that the feed registry uses for _token",
          "_token": "address of the ERC20 token"
        }
      },
      "updateFeedRegistry(address)": {
        "details": "Only contract owner can change feedRegistry",
        "params": {
          "_newAddress": "address of new Chainlink FeedRegistry instance"
        }
      },
      "updateStalenessTolerance(uint256)": {
        "params": {
          "_newTolerance": "new tolerance range in seconds"
        }
      },
      "usdToTokenAmount(address,uint256)": {
        "params": {
          "_amount": "amount in USD (scaled to 18 decimals)",
          "_token": "address of target token"
        },
        "returns": {
          "lastPrice": "target token amount"
        }
      }
    },
    "version": 1
  },
  "userdoc": {
    "kind": "user",
    "methods": {
      "createStream(address,uint256,address,address,uint256)": {
        "notice": "Creates a new payment stream"
      },
      "getStream(uint256)": {
        "notice": "Returns address of the stream located at given id"
      },
      "getStreamsCount()": {
        "notice": "Returns no. of streams stored in contract"
      },
      "ours(address)": {
        "notice": "Checks if a address belongs to this contract' streams"
      },
      "updateCustomFeedMapping(address,address)": {
        "notice": "Defines a custom mapping for token denominations in the Feed Registry"
      },
      "updateFeedRegistry(address)": {
        "notice": "Updates Chainlink FeedRegistry contract address"
      },
      "updateStalenessTolerance(uint256)": {
        "notice": "Defines a staleness tolerance for ChainLink price quote It can be set to 0 to recover the drip"
      },
      "usdToTokenAmount(address,uint256)": {
        "notice": "Converts given amount in usd to target token amount using oracle"
      }
    },
    "version": 1
  },
  "storageLayout": {
    "storage": [
      {
        "astId": 927,
        "contract": "contracts/PaymentStreamFactory.sol:PaymentStreamFactory",
        "label": "_owner",
        "offset": 0,
        "slot": "0",
        "type": "t_address"
      },
      {
        "astId": 4052,
        "contract": "contracts/PaymentStreamFactory.sol:PaymentStreamFactory",
        "label": "allStreams",
        "offset": 0,
        "slot": "1",
        "type": "t_array(t_address)dyn_storage"
      },
      {
        "astId": 4056,
        "contract": "contracts/PaymentStreamFactory.sol:PaymentStreamFactory",
        "label": "isOurs",
        "offset": 0,
        "slot": "2",
        "type": "t_mapping(t_address,t_bool)"
      },
      {
        "astId": 4059,
        "contract": "contracts/PaymentStreamFactory.sol:PaymentStreamFactory",
        "label": "feedRegistry",
        "offset": 0,
        "slot": "3",
        "type": "t_contract(FeedRegistryInterface)530"
      },
      {
        "astId": 4063,
        "contract": "contracts/PaymentStreamFactory.sol:PaymentStreamFactory",
        "label": "customFeedMapping",
        "offset": 0,
        "slot": "4",
        "type": "t_mapping(t_address,t_address)"
      },
      {
        "astId": 4066,
        "contract": "contracts/PaymentStreamFactory.sol:PaymentStreamFactory",
        "label": "stalenessTolerance",
        "offset": 0,
        "slot": "5",
        "type": "t_uint256"
      }
    ],
    "types": {
      "t_address": {
        "encoding": "inplace",
        "label": "address",
        "numberOfBytes": "20"
      },
      "t_array(t_address)dyn_storage": {
        "base": "t_address",
        "encoding": "dynamic_array",
        "label": "address[]",
        "numberOfBytes": "32"
      },
      "t_bool": {
        "encoding": "inplace",
        "label": "bool",
        "numberOfBytes": "1"
      },
      "t_contract(FeedRegistryInterface)530": {
        "encoding": "inplace",
        "label": "contract FeedRegistryInterface",
        "numberOfBytes": "20"
      },
      "t_mapping(t_address,t_address)": {
        "encoding": "mapping",
        "key": "t_address",
        "label": "mapping(address => address)",
        "numberOfBytes": "32",
        "value": "t_address"
      },
      "t_mapping(t_address,t_bool)": {
        "encoding": "mapping",
        "key": "t_address",
        "label": "mapping(address => bool)",
        "numberOfBytes": "32",
        "value": "t_bool"
      },
      "t_uint256": {
        "encoding": "inplace",
        "label": "uint256",
        "numberOfBytes": "32"
      }
    }
  }
}