{
  "address": "0xf47853220BF59C682CCBd28e7cFF4D4E603a4Ca6",
  "abi": [
    {
      "inputs": [
        {
          "internalType": "address",
          "name": "_feedRegistry",
          "type": "address"
        }
      ],
      "stateMutability": "nonpayable",
      "type": "constructor"
    },
    {
      "anonymous": false,
      "inputs": [
        {
          "indexed": true,
          "internalType": "address",
          "name": "token",
          "type": "address"
        },
        {
          "indexed": true,
          "internalType": "address",
          "name": "tokenDenomination",
          "type": "address"
        }
      ],
      "name": "CustomFeedMappingUpdated",
      "type": "event"
    },
    {
      "anonymous": false,
      "inputs": [
        {
          "indexed": true,
          "internalType": "address",
          "name": "previousFeedRegistry",
          "type": "address"
        },
        {
          "indexed": true,
          "internalType": "address",
          "name": "newFeedRegistry",
          "type": "address"
        }
      ],
      "name": "FeedRegistryUpdated",
      "type": "event"
    },
    {
      "anonymous": false,
      "inputs": [
        {
          "indexed": true,
          "internalType": "address",
          "name": "previousOwner",
          "type": "address"
        },
        {
          "indexed": true,
          "internalType": "address",
          "name": "newOwner",
          "type": "address"
        }
      ],
      "name": "OwnershipTransferred",
      "type": "event"
    },
    {
      "anonymous": false,
      "inputs": [
        {
          "indexed": false,
          "internalType": "uint256",
          "name": "id",
          "type": "uint256"
        },
        {
          "indexed": true,
          "internalType": "address",
          "name": "stream",
          "type": "address"
        },
        {
          "indexed": true,
          "internalType": "address",
          "name": "payer",
          "type": "address"
        },
        {
          "indexed": true,
          "internalType": "address",
          "name": "payee",
          "type": "address"
        },
        {
          "indexed": false,
          "internalType": "uint256",
          "name": "usdAmount",
          "type": "uint256"
        }
      ],
      "name": "StreamCreated",
      "type": "event"
    },
    {
      "inputs": [],
      "name": "NAME",
      "outputs": [
        {
          "internalType": "string",
          "name": "",
          "type": "string"
        }
      ],
      "stateMutability": "view",
      "type": "function"
    },
    {
      "inputs": [],
      "name": "VERSION",
      "outputs": [
        {
          "internalType": "string",
          "name": "",
          "type": "string"
        }
      ],
      "stateMutability": "view",
      "type": "function"
    },
    {
      "inputs": [
        {
          "internalType": "address",
          "name": "_payee",
          "type": "address"
        },
        {
          "internalType": "uint256",
          "name": "_usdAmount",
          "type": "uint256"
        },
        {
          "internalType": "address",
          "name": "_token",
          "type": "address"
        },
        {
          "internalType": "address",
          "name": "_fundingAddress",
          "type": "address"
        },
        {
          "internalType": "uint256",
          "name": "_endTime",
          "type": "uint256"
        }
      ],
      "name": "createStream",
      "outputs": [
        {
          "internalType": "address",
          "name": "streamAddress",
          "type": "address"
        }
      ],
      "stateMutability": "nonpayable",
      "type": "function"
    },
    {
      "inputs": [
        {
          "internalType": "address",
          "name": "",
          "type": "address"
        }
      ],
      "name": "customFeedMapping",
      "outputs": [
        {
          "internalType": "address",
          "name": "",
          "type": "address"
        }
      ],
      "stateMutability": "view",
      "type": "function"
    },
    {
      "inputs": [],
      "name": "feedRegistry",
      "outputs": [
        {
          "internalType": "contract FeedRegistryInterface",
          "name": "",
          "type": "address"
        }
      ],
      "stateMutability": "view",
      "type": "function"
    },
    {
      "inputs": [
        {
          "internalType": "uint256",
          "name": "_idx",
          "type": "uint256"
        }
      ],
      "name": "getStream",
      "outputs": [
        {
          "internalType": "address",
          "name": "",
          "type": "address"
        }
      ],
      "stateMutability": "view",
      "type": "function"
    },
    {
      "inputs": [],
      "name": "getStreamsCount",
      "outputs": [
        {
          "internalType": "uint256",
          "name": "",
          "type": "uint256"
        }
      ],
      "stateMutability": "view",
      "type": "function"
    },
    {
      "inputs": [
        {
          "internalType": "address",
          "name": "_a",
          "type": "address"
        }
      ],
      "name": "ours",
      "outputs": [
        {
          "internalType": "bool",
          "name": "",
          "type": "bool"
        }
      ],
      "stateMutability": "view",
      "type": "function"
    },
    {
      "inputs": [],
      "name": "owner",
      "outputs": [
        {
          "internalType": "address",
          "name": "",
          "type": "address"
        }
      ],
      "stateMutability": "view",
      "type": "function"
    },
    {
      "inputs": [],
      "name": "renounceOwnership",
      "outputs": [],
      "stateMutability": "nonpayable",
      "type": "function"
    },
    {
      "inputs": [
        {
          "internalType": "address",
          "name": "newOwner",
          "type": "address"
        }
      ],
      "name": "transferOwnership",
      "outputs": [],
      "stateMutability": "nonpayable",
      "type": "function"
    },
    {
      "inputs": [
        {
          "internalType": "address",
          "name": "_token",
          "type": "address"
        },
        {
          "internalType": "address",
          "name": "_denomination",
          "type": "address"
        }
      ],
      "name": "updateCustomFeedMapping",
      "outputs": [],
      "stateMutability": "nonpayable",
      "type": "function"
    },
    {
      "inputs": [
        {
          "internalType": "address",
          "name": "_newAddress",
          "type": "address"
        }
      ],
      "name": "updateFeedRegistry",
      "outputs": [],
      "stateMutability": "nonpayable",
      "type": "function"
    },
    {
      "inputs": [
        {
          "internalType": "address",
          "name": "_token",
          "type": "address"
        },
        {
          "internalType": "uint256",
          "name": "_amount",
          "type": "uint256"
        }
      ],
      "name": "usdToTokenAmount",
      "outputs": [
        {
          "internalType": "uint256",
          "name": "lastPrice",
          "type": "uint256"
        }
      ],
      "stateMutability": "view",
      "type": "function"
    }
  ],
  "transactionHash": "0xb786a8405c7277a895cd858f10c1eea61af456b63eca7228276ad868e067bb10",
  "args": [
    "0x47Fb2585D2C56Fe188D0E6ec628a38b74fCeeeDf"
  ],
  "solcInputHash": "aea4571b3dce214846dc6eb8f00c3323",
  "bytecode": "0x608060405234801561001057600080fd5b5060405161360338038061360383398101604081905261002f916100ed565b600080546001600160a01b031916339081178255604051909182917f8be0079c531659141344cd1fd0a4f28419497f9722a3daafe3b4186f6b6457e0908290a350600380546001600160a01b039092166001600160a01b031992831617905573c02aaa39b223fe8d0a0e5c4f27ead9083c756cc260005260046020527e137c28eabea4eda5601e544e6551e6761ee561d32c4142c29e0f892835a361805490911673eeeeeeeeeeeeeeeeeeeeeeeeeeeeeeeeeeeeeeee17905561011d565b6000602082840312156100ff57600080fd5b81516001600160a01b038116811461011657600080fd5b9392505050565b6134d78061012c6000396000f3fe60806040523480156200001157600080fd5b5060043610620000fd5760003560e01c8063a3f4df7e1162000097578063b2211d5c116200006e578063b2211d5c1462000265578063e335e79a146200028b578063f2fde38b1462000294578063ffa1ad7414620002ab57600080fd5b8063a3f4df7e14620001d6578063b01cdf3d1462000222578063b02737ff146200023957600080fd5b806381cc3ba411620000d857806381cc3ba41462000159578063894e9a0d14620001995780638da5cb5b14620001b057806390238c3914620001c257600080fd5b80632d3965bd14620001025780635ccc5735146200011b578063715018a6146200014f575b600080fd5b620001196200011336600462000d41565b620002e8565b005b620001326200012c36600462000d7f565b62000466565b6040516001600160a01b0390911681526020015b60405180910390f35b6200011962000598565b620001886200016a36600462000de1565b6001600160a01b031660009081526002602052604090205460ff1690565b604051901515815260200162000146565b62000132620001aa36600462000e08565b6200063e565b6000546001600160a01b031662000132565b60035462000132906001600160a01b031681565b620002136040518060400160405280601481526020017f5061796d656e7453747265616d466163746f727900000000000000000000000081525081565b60405162000146919062000e22565b620001196200023336600462000de1565b62000671565b620001326200024a36600462000de1565b6004602052600090815260409020546001600160a01b031681565b6200027c6200027636600462000e7a565b620007e1565b60405190815260200162000146565b6001546200027c565b62000119620002a536600462000de1565b62000aa7565b620002136040518060400160405280600581526020017f312e302e3200000000000000000000000000000000000000000000000000000081525081565b6000546001600160a01b03163314620003485760405162461bcd60e51b815260206004820181905260248201527f4f776e61626c653a2063616c6c6572206973206e6f7420746865206f776e657260448201526064015b60405180910390fd5b6001600160a01b038116620003a05760405162461bcd60e51b815260206004820152601760248201527f696e76616c69642d637573746f6d2d666565642d6d617000000000000000000060448201526064016200033f565b6001600160a01b03808316600090815260046020526040902054828216911614156200040f5760405162461bcd60e51b815260206004820152601460248201527f73616d652d637573746f6d2d666565642d6d617000000000000000000000000060448201526064016200033f565b6001600160a01b0382811660008181526004602052604080822080546001600160a01b0319169486169485179055517f497fb4c9c745286ec067621e3f67117daa1960eb459aa41003d30394070dd2c49190a35050565b6000620004748486620007e1565b50338686868686604051620004899062000d1a565b6001600160a01b039687168152948616602086015260408501939093529084166060840152909216608082015260a081019190915260c001604051809103906000f080158015620004de573d6000803e3d6000fd5b506001805480820182557fb10e2d527612073b26eecdfd717e6a320cf44b4afac2b0732d9fcbe2b7fa0cf60180546001600160a01b0319166001600160a01b038481169182179092556000818152600260205260409020805460ff19168417905582549394509089169233927fb09edfcf805674d896a73bdea048a368e58a9ee54fe3e177237ba603ce7572239162000578919062000ebf565b60408051918252602082018b90520160405180910390a495945050505050565b6000546001600160a01b03163314620005f45760405162461bcd60e51b815260206004820181905260248201527f4f776e61626c653a2063616c6c6572206973206e6f7420746865206f776e657260448201526064016200033f565b600080546040516001600160a01b03909116907f8be0079c531659141344cd1fd0a4f28419497f9722a3daafe3b4186f6b6457e0908390a3600080546001600160a01b0319169055565b60006001828154811062000656576200065662000ed9565b6000918252602090912001546001600160a01b031692915050565b6000546001600160a01b03163314620006cd5760405162461bcd60e51b815260206004820181905260248201527f4f776e61626c653a2063616c6c6572206973206e6f7420746865206f776e657260448201526064016200033f565b6001600160a01b038116620007255760405162461bcd60e51b815260206004820152601d60248201527f696e76616c69642d666565642d72656769737472792d6164647265737300000060448201526064016200033f565b6003546001600160a01b0382811691161415620007855760405162461bcd60e51b815260206004820152601a60248201527f73616d652d666565642d72656769737472792d6164647265737300000000000060448201526064016200033f565b6003546040516001600160a01b038084169216907f6d1006252b3dd171af76c28c184327bfddc39f439a50e0ac7f418c660b8894b590600090a3600380546001600160a01b0319166001600160a01b0392909216919091179055565b6003546000906001600160a01b031663d2edb6dd620008008562000bdc565b6040517fffffffff0000000000000000000000000000000000000000000000000000000060e084901b1681526001600160a01b039091166004820152610348602482015260440160206040518083038186803b1580156200086057600080fd5b505afa92505050801562000893575060408051601f3d908101601f19168201909252620008909181019062000eef565b60015b620009ce576000620008ba8473eeeeeeeeeeeeeeeeeeeeeeeeeeeeeeeeeeeeeeee62000c24565b90506000620008e073eeeeeeeeeeeeeeeeeeeeeeeeeeeeeeeeeeeeeeee61034862000c24565b9050600081620008f986670de0b6b3a764000062000f0f565b62000905919062000f31565b9050856001600160a01b031663313ce5676040518163ffffffff1660e01b815260040160206040518083038186803b1580156200094157600080fd5b505afa15801562000956573d6000803e3d6000fd5b505050506040513d601f19601f820116820180604052508101906200097c919062000f54565b6200098990601262000f79565b6200099690600a6200109c565b83620009ab83670de0b6b3a764000062000f0f565b620009b7919062000f31565b620009c3919062000f31565b935050505062000aa1565b6000620009de8561034862000c24565b9050846001600160a01b031663313ce5676040518163ffffffff1660e01b815260040160206040518083038186803b15801562000a1a57600080fd5b505afa15801562000a2f573d6000803e3d6000fd5b505050506040513d601f19601f8201168201806040525081019062000a55919062000f54565b62000a6290601262000f79565b62000a6f90600a6200109c565b8162000a8486670de0b6b3a764000062000f0f565b62000a90919062000f31565b62000a9c919062000f31565b925050505b92915050565b6000546001600160a01b0316331462000b035760405162461bcd60e51b815260206004820181905260248201527f4f776e61626c653a2063616c6c6572206973206e6f7420746865206f776e657260448201526064016200033f565b6001600160a01b03811662000b815760405162461bcd60e51b815260206004820152602660248201527f4f776e61626c653a206e6577206f776e657220697320746865207a65726f206160448201527f646472657373000000000000000000000000000000000000000000000000000060648201526084016200033f565b600080546040516001600160a01b03808516939216917f8be0079c531659141344cd1fd0a4f28419497f9722a3daafe3b4186f6b6457e091a3600080546001600160a01b0319166001600160a01b0392909216919091179055565b6001600160a01b038181166000908152600460205260408120549091161562000c20576001600160a01b038083166000908152600460205260409020541662000aa1565b5090565b60035460009081906001600160a01b031663bcfd032d62000c458662000bdc565b6040517fffffffff0000000000000000000000000000000000000000000000000000000060e084901b1681526001600160a01b039182166004820152908616602482015260440160a06040518083038186803b15801562000ca557600080fd5b505afa15801562000cba573d6000803e3d6000fd5b505050506040513d601f19601f8201168201806040525081019062000ce09190620010cd565b509193505050506001600160a01b0383166103481462000d01578062000d12565b62000d12816402540be40062001122565b949350505050565b6122b780620011eb83390190565b6001600160a01b038116811462000d3e57600080fd5b50565b6000806040838503121562000d5557600080fd5b823562000d628162000d28565b9150602083013562000d748162000d28565b809150509250929050565b600080600080600060a0868803121562000d9857600080fd5b853562000da58162000d28565b945060208601359350604086013562000dbe8162000d28565b9250606086013562000dd08162000d28565b949793965091946080013592915050565b60006020828403121562000df457600080fd5b813562000e018162000d28565b9392505050565b60006020828403121562000e1b57600080fd5b5035919050565b600060208083528351808285015260005b8181101562000e515785810183015185820160400152820162000e33565b8181111562000e64576000604083870101525b50601f01601f1916929092016040019392505050565b6000806040838503121562000e8e57600080fd5b823562000e9b8162000d28565b946020939093013593505050565b634e487b7160e01b600052601160045260246000fd5b60008282101562000ed45762000ed462000ea9565b500390565b634e487b7160e01b600052603260045260246000fd5b60006020828403121562000f0257600080fd5b815162000e018162000d28565b600081600019048311821515161562000f2c5762000f2c62000ea9565b500290565b60008262000f4f57634e487b7160e01b600052601260045260246000fd5b500490565b60006020828403121562000f6757600080fd5b815160ff8116811462000e0157600080fd5b600060ff821660ff84168082101562000f965762000f9662000ea9565b90039392505050565b600181815b8085111562000fe057816000190482111562000fc45762000fc462000ea9565b8085161562000fd257918102915b93841c939080029062000fa4565b509250929050565b60008262000ff95750600162000aa1565b81620010085750600062000aa1565b81600181146200102157600281146200102c576200104c565b600191505062000aa1565b60ff84111562001040576200104062000ea9565b50506001821b62000aa1565b5060208310610133831016604e8410600b841016171562001071575081810a62000aa1565b6200107d838362000f9f565b806000190482111562001094576200109462000ea9565b029392505050565b600062000e0160ff84168362000fe8565b805169ffffffffffffffffffff81168114620010c857600080fd5b919050565b600080600080600060a08688031215620010e657600080fd5b620010f186620010ad565b94506020860151935060408601519250606086015191506200111660808701620010ad565b90509295509295909350565b60007f7fffffffffffffffffffffffffffffffffffffffffffffffffffffffffffffff60008413600084138583048511828216161562001166576200116662000ea9565b7f80000000000000000000000000000000000000000000000000000000000000006000871286820588128184161615620011a457620011a462000ea9565b60008712925087820587128484161615620011c357620011c362000ea9565b87850587128184161615620011dc57620011dc62000ea9565b50505092909302939250505056fe60e06040523480156200001157600080fd5b50604051620022b7380380620022b783398101604081905262000034916200054f565b3360c0819052604080516001621794a360e21b03198152905163ffa1ad7491600480820192600092909190829003018186803b1580156200007457600080fd5b505afa15801562000089573d6000803e3d6000fd5b505050506040513d6000823e601f3d908101601f19168201604052620000b39190810190620005d4565b8051620000c9916001916020909101906200048c565b50428111620001125760405162461bcd60e51b815260206004820152601060248201526f696e76616c69642d656e642d74696d6560801b60448201526064015b60405180910390fd5b816001600160a01b0316856001600160a01b03161415620001765760405162461bcd60e51b815260206004820152601860248201527f70617965652d69732d66756e64696e672d616464726573730000000000000000604482015260640162000109565b6001600160a01b038516158015906200019757506001600160a01b03821615155b620001e55760405162461bcd60e51b815260206004820152601d60248201527f70617965652d6f722d66756e64696e672d616464726573732d69732d30000000604482015260640162000109565b60008411620002295760405162461bcd60e51b815260206004820152600f60248201526e07573642d616d6f756e742d69732d3608c1b604482015260640162000109565b600280546001600160a01b038088166001600160a01b031992831617909255600486905584821660a0526003805485841692169190911790558616608052426005819055620002799082620006b0565b60068190556200028a9085620006d6565b6007819055620002d05760405162461bcd60e51b815260206004820152601060248201526f07573642d7065722d7365632d69732d360841b604482015260640162000109565b6040516430b236b4b760d91b60208201526200030c9060250160405160208183030381529060405280519060200120876200038860201b60201c565b604051677061757361626c6560c01b60208201526200037c90602801604051602081830303815290604052805190602001206040516020016200035a906430b236b4b760d91b815260050190565b604051602081830303815290604052805190602001206200039860201b60201c565b50505050505062000736565b620003948282620003ec565b5050565b600082815260208190526040902060010154819060405184907fbd79b86ffe0ab8e8776151514217cd7cacd52c909f66475c3af44e129f0b00ff90600090a460009182526020829052604090912060010155565b6000828152602081815260408083206001600160a01b038516845290915290205460ff1662000394576000828152602081815260408083206001600160a01b03851684529091529020805460ff19166001179055620004483390565b6001600160a01b0316816001600160a01b0316837f2f8788117e7eff1d82e926ec794901d17c78024a50270940304540a733656f0d60405160405180910390a45050565b8280546200049a90620006f9565b90600052602060002090601f016020900481019282620004be576000855562000509565b82601f10620004d957805160ff191683800117855562000509565b8280016001018555821562000509579182015b8281111562000509578251825591602001919060010190620004ec565b50620005179291506200051b565b5090565b5b808211156200051757600081556001016200051c565b80516001600160a01b03811681146200054a57600080fd5b919050565b60008060008060008060c087890312156200056957600080fd5b620005748762000532565b9550620005846020880162000532565b9450604087015193506200059b6060880162000532565b9250620005ab6080880162000532565b915060a087015190509295509295509295565b634e487b7160e01b600052604160045260246000fd5b60006020808385031215620005e857600080fd5b82516001600160401b03808211156200060057600080fd5b818501915085601f8301126200061557600080fd5b8151818111156200062a576200062a620005be565b604051601f8201601f19908116603f01168101908382118183101715620006555762000655620005be565b8160405282815288868487010111156200066e57600080fd5b600093505b8284101562000692578484018601518185018701529285019262000673565b82841115620006a45760008684830101525b98975050505050505050565b600082821015620006d157634e487b7160e01b600052601160045260246000fd5b500390565b600082620006f457634e487b7160e01b600052601260045260246000fd5b500490565b600181811c908216806200070e57607f821691505b602082108114156200073057634e487b7160e01b600052602260045260246000fd5b50919050565b60805160a05160c051611b0b620007ac600039600081816103c901528181610e1d0152610ff301526000818161044c01528181610e4c01528181610fc1015261109c015260008181610233015281816105770152818161075a0152818161090601528181610b320152610c2e0152611b0b6000f3fe608060405234801561001057600080fd5b50600436106101d95760003560e01c8063a217fddf11610104578063d547741f116100a2578063f3ca5edf11610071578063f3ca5edf1461042c578063f6d6d5aa1461043f578063fc0c546a14610447578063ffa1ad741461046e57600080fd5b8063d547741f146103fe578063d9d1bc2714610411578063e834a8341461041a578063f0d909371461042357600080fd5b8063af38d757116100de578063af38d757146103b4578063b87fe774146103bc578063c45a0155146103c4578063d3b7bfb4146103eb57600080fd5b8063a217fddf14610350578063a3f4df7e14610358578063ae90b213146103a157600080fd5b806336568abe1161017c57806361cd014d1161014b57806361cd014d146102ea57806378e97925146102fd57806391d148541461030657806398416f0e1461033d57600080fd5b806336568abe146102ba5780634b7c6617146102cd5780634e71d92d146102d55780635c975abb146102dd57600080fd5b8063123119cd116101b8578063123119cd1461022e57806319f7671b1461026d578063248a9ca3146102845780632f2ff15d146102a757600080fd5b80627adac4146101de57806301ffc9a7146101f357806303b86b551461021b575b600080fd5b6101f16101ec3660046117ee565b610476565b005b610206610201366004611809565b61050b565b60405190151581526020015b60405180910390f35b6101f1610229366004611833565b610574565b6102557f000000000000000000000000000000000000000000000000000000000000000081565b6040516001600160a01b039091168152602001610212565b61027660065481565b604051908152602001610212565b610276610292366004611855565b60009081526020819052604090206001015490565b6101f16102b536600461186e565b6106a0565b6101f16102c836600461186e565b6106cb565b6101f1610757565b6101f1610843565b6009546102069060ff1681565b6101f16102f83660046117ee565b610903565b61027660055481565b61020661031436600461186e565b6000918252602082815260408084206001600160a01b0393909316845291905290205460ff1690565b6101f161034b3660046117ee565b610ae9565b610276600081565b6103946040518060400160405280600d81526020017f5061796d656e7453747265616d0000000000000000000000000000000000000081525081565b60405161021291906118c6565b600254610255906001600160a01b031681565b610276610b20565b6101f1610b2f565b6102557f000000000000000000000000000000000000000000000000000000000000000081565b600354610255906001600160a01b031681565b6101f161040c36600461186e565b610c05565b61027660075481565b61027660085481565b61027660045481565b6101f161043a3660046117ee565b610c2b565b610276610e19565b6102557f000000000000000000000000000000000000000000000000000000000000000081565b610394610eef565b6001600160a01b0381166104d15760405162461bcd60e51b815260206004820152601060248201527f696e76616c69642d64656c65676174650000000000000000000000000000000060448201526064015b60405180910390fd5b604051677061757361626c6560c01b60208201526105089060280160405160208183030381529060405280519060200120826106a0565b50565b60006001600160e01b031982167f7965db0b00000000000000000000000000000000000000000000000000000000148061056e57507f01ffc9a7000000000000000000000000000000000000000000000000000000006001600160e01b03198316145b92915050565b337f00000000000000000000000000000000000000000000000000000000000000006001600160a01b0316146105df5760405162461bcd60e51b815260206004820152601060248201526f3737ba16b9ba3932b0b696b7bbb732b960811b60448201526064016104c8565b42811161062e5760405162461bcd60e51b815260206004820152601060248201527f696e76616c69642d656e642d74696d650000000000000000000000000000000060448201526064016104c8565b610636610f7d565b600482905542600581905561064b908261190f565b600681905561065a9083611926565b600755600060085560408051838152602081018390527f11f23cf1c7a2a194f2b700a80fe1987bf966eb2f8176a0ecf94eec6eb22f408f91015b60405180910390a15050565b6000828152602081905260409020600101546106bc81336110ff565b6106c6838361117d565b505050565b6001600160a01b03811633146107495760405162461bcd60e51b815260206004820152602f60248201527f416363657373436f6e74726f6c3a2063616e206f6e6c792072656e6f756e636560448201527f20726f6c657320666f722073656c66000000000000000000000000000000000060648201526084016104c8565b610753828261121b565b5050565b337f00000000000000000000000000000000000000000000000000000000000000006001600160a01b031614806107c25750604051677061757361626c6560c01b60208201526107c2906028015b604051602081830303815290604052805190602001206103143390565b61080e5760405162461bcd60e51b815260206004820152601d60248201527f6e6f742d73747265616d2d6f776e65722d6f722d64656c65676174656400000060448201526064016104c8565b6009805460ff191690556040517f27196296b54785165ca5e02d8431ca24e4910ce25b0add3fce74aa38927b34a390600090a1565b6002546001600160a01b0316336001600160a01b0316146108a65760405162461bcd60e51b815260206004820152600960248201527f6e6f742d7061796565000000000000000000000000000000000000000000000060448201526064016104c8565b60095460ff16156108f95760405162461bcd60e51b815260206004820152601060248201527f73747265616d2d69732d7061757365640000000000000000000000000000000060448201526064016104c8565b610901610f7d565b565b337f00000000000000000000000000000000000000000000000000000000000000006001600160a01b03161461096e5760405162461bcd60e51b815260206004820152601060248201526f3737ba16b9ba3932b0b696b7bbb732b960811b60448201526064016104c8565b6001600160a01b0381166109c45760405162461bcd60e51b815260206004820152601b60248201527f696e76616c69642d6e65772d66756e64696e672d61646472657373000000000060448201526064016104c8565b6003546001600160a01b0382811691161415610a225760405162461bcd60e51b815260206004820152601860248201527f73616d652d6e65772d66756e64696e672d61646472657373000000000000000060448201526064016104c8565b6002546001600160a01b0382811691161415610a805760405162461bcd60e51b815260206004820152601c60248201527f6e65772d66756e64696e672d616464726573732d69732d70617965650000000060448201526064016104c8565b6003546040516001600160a01b038084169216907f45c1138f56e2e3f78c7e80b5c395a6510bbaba05d80c4d66e947c301c9d388f090600090a36003805473ffffffffffffffffffffffffffffffffffffffff19166001600160a01b0392909216919091179055565b604051677061757361626c6560c01b6020820152610508906028016040516020818303038152906040528051906020012082610c05565b6000610b2a61129a565b905090565b337f00000000000000000000000000000000000000000000000000000000000000006001600160a01b03161480610b815750604051677061757361626c6560c01b6020820152610b81906028016107a5565b610bcd5760405162461bcd60e51b815260206004820152601d60248201527f6e6f742d73747265616d2d6f776e65722d6f722d64656c65676174656400000060448201526064016104c8565b6009805460ff191660011790556040517f8b7fc2110b35688b78e16841494350c1b3329185624cea4b50e59fc2e544a7f890600090a1565b600082815260208190526040902060010154610c2181336110ff565b6106c6838361121b565b337f00000000000000000000000000000000000000000000000000000000000000006001600160a01b031614610c965760405162461bcd60e51b815260206004820152601060248201526f3737ba16b9ba3932b0b696b7bbb732b960811b60448201526064016104c8565b6001600160a01b038116610cec5760405162461bcd60e51b815260206004820152601160248201527f696e76616c69642d6e65772d706179656500000000000000000000000000000060448201526064016104c8565b6002546001600160a01b0382811691161415610d4a5760405162461bcd60e51b815260206004820152600e60248201527f73616d652d6e65772d706179656500000000000000000000000000000000000060448201526064016104c8565b6003546001600160a01b0382811691161415610da85760405162461bcd60e51b815260206004820152601c60248201527f6e65772d70617965652d69732d66756e64696e672d616464726573730000000060448201526064016104c8565b610db0610f7d565b6002546040516001600160a01b038084169216907fa9e5978bbfbf156599d86b750e4db433bc414c83e3ee93cae447582d6d42990b90600090a36002805473ffffffffffffffffffffffffffffffffffffffff19166001600160a01b0392909216919091179055565b60007f00000000000000000000000000000000000000000000000000000000000000006001600160a01b031663b2211d5c7f0000000000000000000000000000000000000000000000000000000000000000610e7361129a565b6040516001600160e01b031960e085901b1681526001600160a01b039092166004830152602482015260440160206040518083038186803b158015610eb757600080fd5b505afa158015610ecb573d6000803e3d6000fd5b505050506040513d601f19601f82011682018060405250810190610b2a9190611948565b60018054610efc90611961565b80601f0160208091040260200160405190810160405280929190818152602001828054610f2890611961565b8015610f755780601f10610f4a57610100808354040283529160200191610f75565b820191906000526020600020905b815481529060010190602001808311610f5857829003601f168201915b505050505081565b6000610f8761129a565b905080610f915750565b6040517fb2211d5c0000000000000000000000000000000000000000000000000000000081526001600160a01b037f000000000000000000000000000000000000000000000000000000000000000081166004830152602482018390526000917f00000000000000000000000000000000000000000000000000000000000000009091169063b2211d5c9060440160206040518083038186803b15801561103757600080fd5b505afa15801561104b573d6000803e3d6000fd5b505050506040513d601f19601f8201168201806040525081019061106f9190611948565b90508160086000828254611083919061199c565b90915550506003546002546110c9916001600160a01b037f00000000000000000000000000000000000000000000000000000000000000008116929181169116846112e8565b60408051838152602081018390527fc83b5086ce94ec8d5a88a9f5fea4b18a522bb238ed0d2d8abd959549a80c16b89101610694565b6000828152602081815260408083206001600160a01b038516845290915290205460ff166107535761113b816001600160a01b03166014611376565b611146836020611376565b6040516020016111579291906119b4565b60408051601f198184030181529082905262461bcd60e51b82526104c8916004016118c6565b6000828152602081815260408083206001600160a01b038516845290915290205460ff16610753576000828152602081815260408083206001600160a01b03851684529091529020805460ff191660011790556111d73390565b6001600160a01b0316816001600160a01b0316837f2f8788117e7eff1d82e926ec794901d17c78024a50270940304540a733656f0d60405160405180910390a45050565b6000828152602081815260408083206001600160a01b038516845290915290205460ff1615610753576000828152602081815260408083206001600160a01b0385168085529252808320805460ff1916905551339285917ff6391f5c32d9c69d2a47ea670b442974b53935d1edc7fd64eb21e047a839171b9190a45050565b600080600554426112ab919061190f565b90506006548111156112cd576008546004546112c7919061190f565b91505090565b600854816007546112de9190611a35565b6112c7919061190f565b604080516001600160a01b0385811660248301528416604482015260648082018490528251808303909101815260849091019091526020810180517bffffffffffffffffffffffffffffffffffffffffffffffffffffffff167f23b872dd0000000000000000000000000000000000000000000000000000000017905261137090859061155e565b50505050565b60606000611385836002611a35565b61139090600261199c565b67ffffffffffffffff8111156113a8576113a8611a54565b6040519080825280601f01601f1916602001820160405280156113d2576020820181803683370190505b5090507f30000000000000000000000000000000000000000000000000000000000000008160008151811061140957611409611a6a565b60200101906001600160f81b031916908160001a9053507f78000000000000000000000000000000000000000000000000000000000000008160018151811061145457611454611a6a565b60200101906001600160f81b031916908160001a9053506000611478846002611a35565b61148390600161199c565b90505b6001811115611508577f303132333435363738396162636465660000000000000000000000000000000085600f16601081106114c4576114c4611a6a565b1a60f81b8282815181106114da576114da611a6a565b60200101906001600160f81b031916908160001a90535060049490941c9361150181611a80565b9050611486565b5083156115575760405162461bcd60e51b815260206004820181905260248201527f537472696e67733a20686578206c656e67746820696e73756666696369656e7460448201526064016104c8565b9392505050565b60006115b3826040518060400160405280602081526020017f5361666545524332303a206c6f772d6c6576656c2063616c6c206661696c6564815250856001600160a01b03166116439092919063ffffffff16565b8051909150156106c657808060200190518101906115d19190611a97565b6106c65760405162461bcd60e51b815260206004820152602a60248201527f5361666545524332303a204552433230206f7065726174696f6e20646964206e60448201527f6f7420737563636565640000000000000000000000000000000000000000000060648201526084016104c8565b6060611652848460008561165a565b949350505050565b6060824710156116d25760405162461bcd60e51b815260206004820152602660248201527f416464726573733a20696e73756666696369656e742062616c616e636520666f60448201527f722063616c6c000000000000000000000000000000000000000000000000000060648201526084016104c8565b843b6117205760405162461bcd60e51b815260206004820152601d60248201527f416464726573733a2063616c6c20746f206e6f6e2d636f6e747261637400000060448201526064016104c8565b600080866001600160a01b0316858760405161173c9190611ab9565b60006040518083038185875af1925050503d8060008114611779576040519150601f19603f3d011682016040523d82523d6000602084013e61177e565b606091505b509150915061178e828286611799565b979650505050505050565b606083156117a8575081611557565b8251156117b85782518084602001fd5b8160405162461bcd60e51b81526004016104c891906118c6565b80356001600160a01b03811681146117e957600080fd5b919050565b60006020828403121561180057600080fd5b611557826117d2565b60006020828403121561181b57600080fd5b81356001600160e01b03198116811461155757600080fd5b6000806040838503121561184657600080fd5b50508035926020909101359150565b60006020828403121561186757600080fd5b5035919050565b6000806040838503121561188157600080fd5b82359150611891602084016117d2565b90509250929050565b60005b838110156118b557818101518382015260200161189d565b838111156113705750506000910152565b60208152600082518060208401526118e581604085016020870161189a565b601f01601f19169190910160400192915050565b634e487b7160e01b600052601160045260246000fd5b600082821015611921576119216118f9565b500390565b60008261194357634e487b7160e01b600052601260045260246000fd5b500490565b60006020828403121561195a57600080fd5b5051919050565b600181811c9082168061197557607f821691505b6020821081141561199657634e487b7160e01b600052602260045260246000fd5b50919050565b600082198211156119af576119af6118f9565b500190565b7f416363657373436f6e74726f6c3a206163636f756e74200000000000000000008152600083516119ec81601785016020880161189a565b7f206973206d697373696e6720726f6c65200000000000000000000000000000006017918401918201528351611a2981602884016020880161189a565b01602801949350505050565b6000816000190483118215151615611a4f57611a4f6118f9565b500290565b634e487b7160e01b600052604160045260246000fd5b634e487b7160e01b600052603260045260246000fd5b600081611a8f57611a8f6118f9565b506000190190565b600060208284031215611aa957600080fd5b8151801515811461155757600080fd5b60008251611acb81846020870161189a565b919091019291505056fea2646970667358221220d8cc08265955021cde2be308ec70395958917703ece9833b69027c077a047e0d64736f6c63430008090033a2646970667358221220d7b0de33f42ad39b66511188fdd4314152fbad707bb6faf20e7fc4f65193461864736f6c63430008090033",
  "devdoc": {
    "kind": "dev",
    "methods": {
      "createStream(address,uint256,address,address,uint256)": {
        "details": "Payer (_msgSender()) is set as admin of \"pausableRole\", so he can grant and revoke the \"pausable\" role later on",
        "params": {
          "_endTime": "timestamp that sets drip distribution end",
          "_fundingAddress": "address used to withdraw the drip",
          "_payee": "address that receives the payment stream",
          "_token": "address of the ERC20 token that payee receives as payment",
          "_usdAmount": "uint256 total amount in USD (scaled to 18 decimals) to be distributed until endTime"
        }
      },
      "owner()": {
        "details": "Returns the address of the current owner."
      },
      "renounceOwnership()": {
        "details": "Leaves the contract without owner. It will not be possible to call `onlyOwner` functions anymore. Can only be called by the current owner. NOTE: Renouncing ownership will leave the contract without an owner, thereby removing any functionality that is only available to the owner."
      },
      "transferOwnership(address)": {
        "details": "Transfers ownership of the contract to a new account (`newOwner`). Can only be called by the current owner."
      },
      "updateCustomFeedMapping(address,address)": {
        "params": {
          "_denomination": "the denomination address that the feed registry uses for _token",
          "_token": "address of the ERC20 token"
        }
      },
      "updateFeedRegistry(address)": {
        "details": "Only contract owner can change feedRegistry",
        "params": {
          "_newAddress": "address of new Chainlink FeedRegistry instance"
        }
      },
      "usdToTokenAmount(address,uint256)": {
        "params": {
          "_amount": "amount in USD (scaled to 18 decimals)",
          "_token": "address of target token"
        },
        "returns": {
          "lastPrice": "target token amount"
        }
      }
    },
    "version": 1
  },
  "userdoc": {
    "kind": "user",
    "methods": {
      "createStream(address,uint256,address,address,uint256)": {
        "notice": "Creates a new payment stream"
      },
      "getStream(uint256)": {
        "notice": "Returns address of the stream located at given id"
      },
      "getStreamsCount()": {
        "notice": "Returns no. of streams stored in contract"
      },
      "ours(address)": {
        "notice": "Checks if a address belongs to this contract' streams"
      },
      "updateCustomFeedMapping(address,address)": {
        "notice": "Defines a custom mapping for token denominations in the Feed Registry"
      },
      "updateFeedRegistry(address)": {
        "notice": "Updates Chainlink FeedRegistry contract address"
      },
      "usdToTokenAmount(address,uint256)": {
        "notice": "Converts given amount in usd to target token amount using oracle"
      }
    },
    "version": 1
  },
  "storageLayout": {
    "storage": [
      {
        "astId": 906,
        "contract": "contracts/PaymentStreamFactory.sol:PaymentStreamFactory",
        "label": "_owner",
        "offset": 0,
        "slot": "0",
        "type": "t_address"
      },
      {
        "astId": 2993,
        "contract": "contracts/PaymentStreamFactory.sol:PaymentStreamFactory",
        "label": "allStreams",
        "offset": 0,
        "slot": "1",
        "type": "t_array(t_address)dyn_storage"
      },
      {
        "astId": 2997,
        "contract": "contracts/PaymentStreamFactory.sol:PaymentStreamFactory",
        "label": "isOurs",
        "offset": 0,
        "slot": "2",
        "type": "t_mapping(t_address,t_bool)"
      },
      {
        "astId": 3000,
        "contract": "contracts/PaymentStreamFactory.sol:PaymentStreamFactory",
        "label": "feedRegistry",
        "offset": 0,
        "slot": "3",
        "type": "t_contract(FeedRegistryInterface)530"
      },
      {
        "astId": 3004,
        "contract": "contracts/PaymentStreamFactory.sol:PaymentStreamFactory",
        "label": "customFeedMapping",
        "offset": 0,
        "slot": "4",
        "type": "t_mapping(t_address,t_address)"
      }
    ],
    "types": {
      "t_address": {
        "encoding": "inplace",
        "label": "address",
        "numberOfBytes": "20"
      },
      "t_array(t_address)dyn_storage": {
        "base": "t_address",
        "encoding": "dynamic_array",
        "label": "address[]",
        "numberOfBytes": "32"
      },
      "t_bool": {
        "encoding": "inplace",
        "label": "bool",
        "numberOfBytes": "1"
      },
      "t_contract(FeedRegistryInterface)530": {
        "encoding": "inplace",
        "label": "contract FeedRegistryInterface",
        "numberOfBytes": "20"
      },
      "t_mapping(t_address,t_address)": {
        "encoding": "mapping",
        "key": "t_address",
        "label": "mapping(address => address)",
        "numberOfBytes": "32",
        "value": "t_address"
      },
      "t_mapping(t_address,t_bool)": {
        "encoding": "mapping",
        "key": "t_address",
        "label": "mapping(address => bool)",
        "numberOfBytes": "32",
        "value": "t_bool"
      }
    }
  }
}